:1000000002009CC00078B10000D8FCD00022C000E3
:10001000C001792D78A6D8FED9FADAF6D001D00041
:10002000227A5979FA78A6D8FED9FADAF6227A1D18
:1000300079FA78A6D8FED9FADAF622D2931200031A
:10004000C29322D29102004DC29102004DA2E792CA
:10005000B5A2E692B4A2E592B3A2E492B212003B3A
:10006000A2E392B5A2E292B4A2E192B3A2E092B26C
:1000700012003B22C293C2927433120048743312AE
:10008000004874321200487428120048740C1200A0
:100090004874011200487A0212000E2275817F1204
:1000A000007412002E748012004874411200431232
:1000B000002E7481120048745912004312002E74ED
:1000C00082120048744412004312002E74831200FE
:1000D00048744512004312002E7484120048744E76
:1000E00012004312002E748612004874431200431B
:1000F00012002E7487120048744812004312002E1A
:100100007488120048744F12004312002E74891232
:100110000048745712004312002E74C01200487435
:100120003312004312002E74C112004874331200BF
:100130004312002E74C212004874311200431200A0
:100140002E74C3120048743712004312002E74C478
:10015000120048743712004312002E74C512004872
:10016000743012004312002E74C612004874391203
:10017000004312002E74C712004874381200431254
:100180000021748012004874201200437481120010
:1001900048742012004374821200487420120043F5
:1001A000748312004874201200437484120048744F
:1001B0002012004374861200487420120043748792
:1001C00012004874201200437488120048742012F0
:1001D00000437489120048742012004374C0120056
:1001E00048742012004374C1120048742012004366
:1001F00074C2120048742012004374C31200487481
:100200002012004374C4120048742012004374C5C5
:10021000120048742012004374C612004874201261
:10022000004374C71200487420B2B7120043120092
:04023000210200A205
:00000001FF
